:100000000C945C000C946E000C946E000C946E00CA
:100010000C946E000C946E000C946E000C946E00A8
:100020000C946E000C946E000C946E000C946E0098
:100030000C946E000C946E000C946E000C946E0088
:100040000C940F020C946E000C946E000C946E00D5
:100050000C946E000C946E000C946E000C946E0068
:100060000C946E000C946E00000000080002010069
:100070000003040700000000000000000000000072
:10008000250028002B0000000000240027002A0083
:10009000040404040404040402020202020203032E
:1000A0000303030301020408102040800102040836
:1000B000102001020408102011241FBECFEFD8E049
:1000C000DEBFCDBF21E0A0E0B1E001C01D92A531AF
:1000D000B207E1F70E9455020C94AF030C940000A4
:1000E00090E0FC01EC55FF4F249180579F4FFC019D
:1000F0008491882399F090E0880F991FFC01EA57BA
:10010000FF4FA591B491FC01E458FF4F8591949164
:100110008FB7F894EC91E22BEC938FBF089590E0A9
:10012000FC01E859FF4F2491FC01EC55FF4F34913D
:10013000FC01E057FF4FE491EE23C9F0222339F090
:10014000233001F1A8F4213019F1223029F1F0E037
:10015000EE0FFF1FE458FF4FA591B4918FB7F894AD
:10016000EC91611126C030953E233C938FBF0895DA
:100170002730A9F02830C9F0243049F78091800059
:100180008F7D03C0809180008F7780938000DFCFC8
:1001900084B58F7784BDDBCF84B58F7DFBCF809115
:1001A000B0008F778093B000D2CF8091B0008F7D68
:1001B000F9CF3E2BDACF1F93CF93DF93182FEB01AC
:1001C0000E947000209739F460E0812FDF91CF9179
:1001D0001F910C948F00CF3FD10511F461E0F5CF52
:1001E000E12FF0E0E859FF4FE491E33031F140F4C2
:1001F000E130B1F0E230E1F0C038D1057CF7E4CF76
:10020000E73029F1E83059F1E430B1F7809180000E
:10021000806280938000D0938B00C0938A0004C0DA
:1002200084B5806884BDC7BDDF91CF911F910895CB
:1002300084B5806284BDC8BDF7CF8091800080689E
:1002400080938000D0938900C0938800EDCF809187
:10025000B00080688093B000C093B300E5CF809178
:10026000B00080628093B000C093B400DDCF8064A2
:1002700080937C0080917A00806480937A008091E2
:100280007A0086FDFCCF80917800909179000895E6
:100290009FB7F894409105015091060160910701C4
:1002A0007091080186B5A89B06C08F3F21F04F5F73
:1002B0005F4F6F4F7F4F9FBF2227342F452F562F01
:1002C000280F311D411D511DA3E0B0E00E94950390
:1002D00008958F929F92AF92BF92CF92DF92EF924A
:1002E000FF924B015C010E9448016B017C010E945E
:1002F00048016C197D098E099F09683E734081058C
:100300009105A8F321E0821A9108A108B10888EEAE
:10031000C80E83E0D81EE11CF11C81149104A104D5
:10032000B10429F7FF90EF90DF90CF90BF90AF908E
:100330009F908F9008950F931F93CF93DF938C011D
:10034000EB011816190614F577FF3EC060E083E054
:100350000E948F0060E084E00E948F0061E083E1F2
:100360000E948F0061E082E00E948F00662777275D
:100370006C1B7D0B85E00E94DB00B80186E00E94CB
:10038000DB00DF91CF911F910F910895892BC9F365
:100390001C161D066CF560E084E00E948F0060E092
:1003A00083E00E948F0061E083E10E948F0061E0A2
:1003B00082E00E948F00BE0185E00E94DB0066277C
:1003C0007727601B710BDACF2097D9F260E082E0CB
:1003D0000E948F0060E083E10E948F0061E083E073
:1003E0000E948F0061E084E00E948F00BE01C2CFB6
:1003F000209739F260E084E00E948F0060E083E0A3
:100400000E948F0061E083E10E948F0061E082E042
:100410000E948F00662777276C1B7D0BCDCF1F9224
:100420000F920FB60F9211242F933F938F939F93A8
:10043000AF93BF938091010190910201A0910301BC
:10044000B09104013091000126E6230F2D3728F0EA
:1004500029EE230F0196A11DB11D20930001809369
:10046000010190930201A0930301B09304018091D4
:10047000050190910601A0910701B0910801019634
:10048000A11DB11D8093050190930601A093070162
:10049000B0930801BF91AF919F918F913F912F91A0
:1004A0000F900FBE0F901F901895789484B58260BE
:1004B00084BD84B5816084BD85B5826085BD85B508
:1004C000816085BD80916E00816080936E00109286
:1004D0008100809181008260809381008091810001
:1004E0008160809381008091800081608093800092
:1004F0008091B10084608093B1008091B0008160F0
:100500008093B00080917A00846080937A0080911B
:100510007A00826080937A0080917A008160809373
:100520007A0080917A00806880937A001092C100EE
:100530008DE00E9470008CE00E9470008BE00E94B1
:10054000700083E10E94700083E00E94700084E0EC
:100550000E94700082E00E94700085E00E9470009E
:1005600086E00E94700080E0E82E80E0F82E92E0A5
:10057000C92ED12C01E010E081E00E9437015C011E
:1005800090930E0180930D0183E00E9437014C018E
:1005900090930C0180930B0182E00E943701EC01E3
:1005A000909312018093110180E00E943701909393
:1005B000100180930F01209113013091140121301B
:1005C000310509F440C048F02230310509F478C003
:1005D000109214011092130110C020910901309162
:1005E0000A01232B89F46CEA7DE080E090E00E9410
:1005F000690110930A0100930901E114F10409F45F
:10060000BBCF0E940000B8CF23E3A216B1042CF4A4
:10061000D0921401C0921301F0CF26E9A216B104C2
:1006200064F3C039D14054F4803991403CF462E322
:1006300070E087E890E00E949B01DFCF10931401E7
:1006400000931301DACFC03921E0D207A4F1803939
:1006500021E0920794F223E3A216B104CCF226E93A
:10066000A216B10454F2C03921E0D20729F480392E
:1006700021E0920709F4ACCFC81BD90BCB3B8EEF1E
:10068000D8076CF466E970E082E390E00E949B0179
:1006900068EC70E080E090E00E946901AECF6FEFFF
:1006A00070E08FEF90E0C634D1402CF262E370E04E
:1006B00086E990E0EBCF803991400CF489CF9DCF53
:1006C00083E3A816B1049CF461E08CE026E982166D
:1006D000910434F483E388169104D4F461E08BE050
:1006E0000E948F0061E07FEF82E390E0A4CF86E973
:1006F000A816B1046CF023E3821691044CF461E077
:100700008DE00E948F0062E370E081E09FEF93CF65
:1007100060E08DE00E948F0060E08CE00E948F001E
:1007200060E08BE00E948F0053CF0E94A003A59F42
:10073000900DB49F900DA49F800D911D11240895DC
:10074000A29FB001B39FC001A39F700D811D112412
:10075000911DB29F700D811D1124911D0895F89473
:02076000FFCFC9
:00000001FF
